{"project/contracts/tracking.sol":{"Tracking":{"abi":[{"inputs":[],"stateMutability":"nonpayable","type":"constructor"},{"anonymous":false,"inputs":[{"indexed":true,"internalType":"address","name":"sender","type":"address"},{"indexed":true,"internalType":"address","name":"receiver","type":"address"},{"indexed":false,"internalType":"uint256","name":"pickupTime","type":"uint256"},{"indexed":false,"internalType":"uint256","name":"distance","type":"uint256"},{"indexed":false,"internalType":"uint256","name":"price","type":"uint256"}],"name":"ShipmentCreated","type":"event"},{"anonymous":false,"inputs":[{"indexed":true,"internalType":"address","name":"sender","type":"address"},{"indexed":true,"internalType":"address","name":"receiver","type":"address"},{"indexed":false,"internalType":"uint256","name":"deliveryTime","type":"uint256"}],"name":"ShipmentDeliverd","type":"event"},{"anonymous":false,"inputs":[{"indexed":true,"internalType":"address","name":"sender","type":"address"},{"indexed":true,"internalType":"address","name":"receiver","type":"address"},{"indexed":false,"internalType":"uint256","name":"pickupTime","type":"uint256"}],"name":"ShipmentInTransit","type":"event"},{"anonymous":false,"inputs":[{"indexed":true,"internalType":"address","name":"sender","type":"address"},{"indexed":true,"internalType":"address","name":"receiver","type":"address"},{"indexed":false,"internalType":"uint256","name":"amount","type":"uint256"}],"name":"ShipmentPaid","type":"event"},{"inputs":[{"internalType":"address","name":"_sender","type":"address"},{"internalType":"address","name":"_receiver","type":"address"},{"internalType":"uint256","name":"_index","type":"uint256"}],"name":"completeShipment","outputs":[],"stateMutability":"nonpayable","type":"function"},{"inputs":[{"internalType":"address","name":"_receiver","type":"address"},{"internalType":"uint256","name":"_pickupTime","type":"uint256"},{"internalType":"uint256","name":"_distance","type":"uint256"},{"internalType":"uint256","name":"_price","type":"uint256"}],"name":"createShipment","outputs":[],"stateMutability":"payable","type":"function"},{"inputs":[],"name":"getAllTranstions","outputs":[{"components":[{"internalType":"address","name":"sender","type":"address"},{"internalType":"address","name":"receiver","type":"address"},{"internalType":"uint256","name":"pickupTime","type":"uint256"},{"internalType":"uint256","name":"deliveryTime","type":"uint256"},{"internalType":"uint256","name":"distance","type":"uint256"},{"internalType":"uint256","name":"price","type":"uint256"},{"internalType":"enum Tracking.ShipmentStatus","name":"status","type":"uint8"},{"internalType":"bool","name":"isPaid","type":"bool"}],"internalType":"struct Tracking.TypeShipment[]","name":"","type":"tuple[]"}],"stateMutability":"view","type":"function"},{"inputs":[{"internalType":"address","name":"_sender","type":"address"},{"internalType":"uint256","name":"_index","type":"uint256"}],"name":"getShipment","outputs":[{"internalType":"address","name":"","type":"address"},{"internalType":"address","name":"","type":"address"},{"internalType":"uint256","name":"","type":"uint256"},{"internalType":"uint256","name":"","type":"uint256"},{"internalType":"uint256","name":"","type":"uint256"},{"internalType":"uint256","name":"","type":"uint256"},{"internalType":"enum Tracking.ShipmentStatus","name":"","type":"uint8"},{"internalType":"bool","name":"","type":"bool"}],"stateMutability":"view","type":"function"},{"inputs":[{"internalType":"address","name":"_sender","type":"address"}],"name":"getShipmentCount","outputs":[{"internalType":"uint256","name":"","type":"uint256"}],"stateMutability":"view","type":"function"},{"inputs":[],"name":"shipmentCount","outputs":[{"internalType":"uint256","name":"","type":"uint256"}],"stateMutability":"view","type":"function"},{"inputs":[{"internalType":"address","name":"","type":"address"},{"internalType":"uint256","name":"","type":"uint256"}],"name":"shipments","outputs":[{"internalType":"address","name":"sender","type":"address"},{"internalType":"address","name":"receiver","type":"address"},{"internalType":"uint256","name":"pickupTime","type":"uint256"},{"internalType":"uint256","name":"deliveryTime","type":"uint256"},{"internalType":"uint256","name":"distance","type":"uint256"},{"internalType":"uint256","name":"price","type":"uint256"},{"internalType":"enum Tracking.ShipmentStatus","name":"status","type":"uint8"},{"internalType":"bool","name":"isPaid","type":"bool"}],"stateMutability":"view","type":"function"},{"inputs":[{"internalType":"address","name":"_sender","type":"address"},{"internalType":"address","name":"_receiver","type":"address"},{"internalType":"uint256","name":"_index","type":"uint256"}],"name":"startShipment","outputs":[],"stateMutability":"nonpayable","type":"function"}],"evm":{"bytecode":{"linkReferences":{},"object":"6080604052348015600e575f5ffd5b505f6001819055506118a0806100235f395ff3fe60806040526004361061007a575f3560e01c80638365da541161004d5780638365da541461013b578063aace20b71461017e578063b7dfd93d146101a8578063cbc4b181146101e45761007a565b8063179a878c1461007e5780635667e02f146100a65780637d30b244146100e95780637ff5265d14610113575b5f5ffd5b348015610089575f5ffd5b506100a4600480360381019061009f9190611154565b610200565b005b3480156100b1575f5ffd5b506100cc60048036038101906100c791906111a4565b6105c2565b6040516100e098979695949392919061128d565b60405180910390f35b3480156100f4575f5ffd5b506100fd610676565b60405161010a919061148e565b60405180910390f35b34801561011e575f5ffd5b5061013960048036038101906101349190611154565b6107f9565b005b348015610146575f5ffd5b50610161600480360381019061015c91906111a4565b610a48565b60405161017598979695949392919061128d565b60405180910390f35b348015610189575f5ffd5b50610192610c24565b60405161019f91906114ae565b60405180910390f35b3480156101b3575f5ffd5b506101ce60048036038101906101c991906114c7565b610c2a565b6040516101db91906114ae565b60405180910390f35b6101fe60048036038101906101f991906114f2565b610c72565b005b5f5f5f8573ffffffffffffffffffffffffffffffffffffffff1673ffffffffffffffffffffffffffffffffffffffff1681526020019081526020015f20828154811061024f5761024e611556565b5b905f5260205f20906007020190505f6002838154811061027257610271611556565b5b905f5260205f20906007020190508373ffffffffffffffffffffffffffffffffffffffff16826001015f9054906101000a900473ffffffffffffffffffffffffffffffffffffffff1673ffffffffffffffffffffffffffffffffffffffff1614610311576040517f08c379a0000000000000000000000000000000000000000000000000000000008152600401610308906115dd565b60405180910390fd5b6001600281111561032557610324611200565b5b826006015f9054906101000a900460ff16600281111561034857610347611200565b5b14610388576040517f08c379a000000000000000000000000000000000000000000000000000000000815260040161037f90611645565b60405180910390fd5b8160060160019054906101000a900460ff16156103da576040517f08c379a00000000000000000000000000000000000000000000000000000000081526004016103d1906116ad565b60405180910390fd5b6002826006015f6101000a81548160ff0219169083600281111561040157610400611200565b5b02179055506002816006015f6101000a81548160ff0219169083600281111561042d5761042c611200565b5b02179055504281600301819055504282600301819055505f82600501549050825f015f9054906101000a900473ffffffffffffffffffffffffffffffffffffffff1673ffffffffffffffffffffffffffffffffffffffff166108fc8290811502906040515f60405180830381858888f193505050501580156104b1573d5f5f3e3d5ffd5b5060018360060160016101000a81548160ff02191690831515021790555060018260060160016101000a81548160ff0219169083151502179055508473ffffffffffffffffffffffffffffffffffffffff168673ffffffffffffffffffffffffffffffffffffffff167f42f7806634b6ed7278bab6408b6fa250a92160f4d662cf40ef45a6044aeadc5a856003015460405161054d91906114ae565b60405180910390a38473ffffffffffffffffffffffffffffffffffffffff168673ffffffffffffffffffffffffffffffffffffffff167f2b6f2473aebafaf8d0889669490135928ec4454d2e29a103fd39693bbca6aef1836040516105b291906114ae565b60405180910390a3505050505050565b5f602052815f5260405f2081815481106105da575f80fd5b905f5260205f2090600702015f9150915050805f015f9054906101000a900473ffffffffffffffffffffffffffffffffffffffff1690806001015f9054906101000a900473ffffffffffffffffffffffffffffffffffffffff1690806002015490806003015490806004015490806005015490806006015f9054906101000a900460ff16908060060160019054906101000a900460ff16905088565b60606002805480602002602001604051908101604052809291908181526020015f905b828210156107f0578382905f5260205f209060070201604051806101000160405290815f82015f9054906101000a900473ffffffffffffffffffffffffffffffffffffffff1673ffffffffffffffffffffffffffffffffffffffff1673ffffffffffffffffffffffffffffffffffffffff168152602001600182015f9054906101000a900473ffffffffffffffffffffffffffffffffffffffff1673ffffffffffffffffffffffffffffffffffffffff1673ffffffffffffffffffffffffffffffffffffffff16815260200160028201548152602001600382015481526020016004820154815260200160058201548152602001600682015f9054906101000a900460ff1660028111156107b0576107af611200565b5b60028111156107c2576107c1611200565b5b81526020016006820160019054906101000a900460ff16151515158152505081526020019060010190610699565b50505050905090565b5f5f5f8573ffffffffffffffffffffffffffffffffffffffff1673ffffffffffffffffffffffffffffffffffffffff1681526020019081526020015f20828154811061084857610847611556565b5b905f5260205f20906007020190505f6002838154811061086b5761086a611556565b5b905f5260205f20906007020190508373ffffffffffffffffffffffffffffffffffffffff16826001015f9054906101000a900473ffffffffffffffffffffffffffffffffffffffff1673ffffffffffffffffffffffffffffffffffffffff161461090a576040517f08c379a0000000000000000000000000000000000000000000000000000000008152600401610901906115dd565b60405180910390fd5b5f600281111561091d5761091c611200565b5b826006015f9054906101000a900460ff1660028111156109405761093f611200565b5b14610980576040517f08c379a000000000000000000000000000000000000000000000000000000000815260040161097790611715565b60405180910390fd5b6001826006015f6101000a81548160ff021916908360028111156109a7576109a6611200565b5b02179055506001816006015f6101000a81548160ff021916908360028111156109d3576109d2611200565b5b02179055508373ffffffffffffffffffffffffffffffffffffffff168573ffffffffffffffffffffffffffffffffffffffff167faafab9f94340179ff9cefd29621e1772a4b8efab8023163838f1b0a8f6ce5df58460020154604051610a3991906114ae565b60405180910390a35050505050565b5f5f5f5f5f5f5f5f5f5f5f8c73ffffffffffffffffffffffffffffffffffffffff1673ffffffffffffffffffffffffffffffffffffffff1681526020019081526020015f208a81548110610a9f57610a9e611556565b5b905f5260205f209060070201604051806101000160405290815f82015f9054906101000a900473ffffffffffffffffffffffffffffffffffffffff1673ffffffffffffffffffffffffffffffffffffffff1673ffffffffffffffffffffffffffffffffffffffff168152602001600182015f9054906101000a900473ffffffffffffffffffffffffffffffffffffffff1673ffffffffffffffffffffffffffffffffffffffff1673ffffffffffffffffffffffffffffffffffffffff16815260200160028201548152602001600382015481526020016004820154815260200160058201548152602001600682015f9054906101000a900460ff166002811115610bac57610bab611200565b5b6002811115610bbe57610bbd611200565b5b81526020016006820160019054906101000a900460ff1615151515815250509050805f015181602001518260400151836060015184608001518560a001518660c001518760e0015198509850985098509850985098509850509295985092959890939650565b60015481565b5f5f5f8373ffffffffffffffffffffffffffffffffffffffff1673ffffffffffffffffffffffffffffffffffffffff1681526020019081526020015f20805490509050919050565b803414610cb4576040517f08c379a0000000000000000000000000000000000000000000000000000000008152600401610cab906117a3565b60405180910390fd5b5f6040518061010001604052803373ffffffffffffffffffffffffffffffffffffffff1681526020018673ffffffffffffffffffffffffffffffffffffffff1681526020018581526020015f81526020018481526020018381526020015f6002811115610d2457610d23611200565b5b81526020015f151581525090505f5f3373ffffffffffffffffffffffffffffffffffffffff1673ffffffffffffffffffffffffffffffffffffffff1681526020019081526020015f2081908060018154018082558091505060019003905f5260205f2090600702015f909190919091505f820151815f015f6101000a81548173ffffffffffffffffffffffffffffffffffffffff021916908373ffffffffffffffffffffffffffffffffffffffff1602179055506020820151816001015f6101000a81548173ffffffffffffffffffffffffffffffffffffffff021916908373ffffffffffffffffffffffffffffffffffffffff16021790555060408201518160020155606082015181600301556080820151816004015560a0820151816005015560c0820151816006015f6101000a81548160ff02191690836002811115610e7057610e6f611200565b5b021790555060e08201518160060160016101000a81548160ff021916908315150217905550505060015f815480929190610ea9906117ee565b919050555060026040518061010001604052803373ffffffffffffffffffffffffffffffffffffffff1681526020018773ffffffffffffffffffffffffffffffffffffffff1681526020018681526020015f81526020018581526020018481526020015f6002811115610f1f57610f1e611200565b5b81526020015f1515815250908060018154018082558091505060019003905f5260205f2090600702015f909190919091505f820151815f015f6101000a81548173ffffffffffffffffffffffffffffffffffffffff021916908373ffffffffffffffffffffffffffffffffffffffff1602179055506020820151816001015f6101000a81548173ffffffffffffffffffffffffffffffffffffffff021916908373ffffffffffffffffffffffffffffffffffffffff16021790555060408201518160020155606082015181600301556080820151816004015560a0820151816005015560c0820151816006015f6101000a81548160ff0219169083600281111561102c5761102b611200565b5b021790555060e08201518160060160016101000a81548160ff02191690831515021790555050508473ffffffffffffffffffffffffffffffffffffffff163373ffffffffffffffffffffffffffffffffffffffff167f5001b34ecf2db5b7bbeddcbbe761ec9ecadcc7638018b98ce3e24995b0e946b68686866040516110b493929190611835565b60405180910390a35050505050565b5f5ffd5b5f73ffffffffffffffffffffffffffffffffffffffff82169050919050565b5f6110f0826110c7565b9050919050565b611100816110e6565b811461110a575f5ffd5b50565b5f8135905061111b816110f7565b92915050565b5f819050919050565b61113381611121565b811461113d575f5ffd5b50565b5f8135905061114e8161112a565b92915050565b5f5f5f6060848603121561116b5761116a6110c3565b5b5f6111788682870161110d565b93505060206111898682870161110d565b925050604061119a86828701611140565b9150509250925092565b5f5f604083850312156111ba576111b96110c3565b5b5f6111c78582860161110d565b92505060206111d885828601611140565b9150509250929050565b6111eb816110e6565b82525050565b6111fa81611121565b82525050565b7f4e487b71000000000000000000000000000000000000000000000000000000005f52602160045260245ffd5b6003811061123e5761123d611200565b5b50565b5f81905061124e8261122d565b919050565b5f61125d82611241565b9050919050565b61126d81611253565b82525050565b5f8115159050919050565b61128781611273565b82525050565b5f610100820190506112a15f83018b6111e2565b6112ae602083018a6111e2565b6112bb60408301896111f1565b6112c860608301886111f1565b6112d560808301876111f1565b6112e260a08301866111f1565b6112ef60c0830185611264565b6112fc60e083018461127e565b9998505050505050505050565b5f81519050919050565b5f82825260208201905092915050565b5f819050602082019050919050565b61133b816110e6565b82525050565b61134a81611121565b82525050565b61135981611253565b82525050565b61136881611273565b82525050565b61010082015f8201516113835f850182611332565b5060208201516113966020850182611332565b5060408201516113a96040850182611341565b5060608201516113bc6060850182611341565b5060808201516113cf6080850182611341565b5060a08201516113e260a0850182611341565b5060c08201516113f560c0850182611350565b5060e082015161140860e085018261135f565b50505050565b5f611419838361136e565b6101008301905092915050565b5f602082019050919050565b5f61143c82611309565b6114468185611313565b935061145183611323565b805f5b83811015611481578151611468888261140e565b975061147383611426565b925050600181019050611454565b5085935050505092915050565b5f6020820190508181035f8301526114a68184611432565b905092915050565b5f6020820190506114c15f8301846111f1565b92915050565b5f602082840312156114dc576114db6110c3565b5b5f6114e98482850161110d565b91505092915050565b5f5f5f5f6080858703121561150a576115096110c3565b5b5f6115178782880161110d565b945050602061152887828801611140565b935050604061153987828801611140565b925050606061154a87828801611140565b91505092959194509250565b7f4e487b71000000000000000000000000000000000000000000000000000000005f52603260045260245ffd5b5f82825260208201905092915050565b7f496e76616c6964207265636569766572000000000000000000000000000000005f82015250565b5f6115c7601083611583565b91506115d282611593565b602082019050919050565b5f6020820190508181035f8301526115f4816115bb565b9050919050565b7f536869706d656e74206e6f7420696e207472616e7369740000000000000000005f82015250565b5f61162f601783611583565b915061163a826115fb565b602082019050919050565b5f6020820190508181035f83015261165c81611623565b9050919050565b7f536869706d656e7420616c7265616479207061696400000000000000000000005f82015250565b5f611697601583611583565b91506116a282611663565b602082019050919050565b5f6020820190508181035f8301526116c48161168b565b9050919050565b7f536869706d656e7420616c726561647920696e207472616e73697400000000005f82015250565b5f6116ff601b83611583565b915061170a826116cb565b602082019050919050565b5f6020820190508181035f83015261172c816116f3565b9050919050565b7f5061796d656e7420616d6f756e74206d757374206d61746368207468652070725f8201527f6963650000000000000000000000000000000000000000000000000000000000602082015250565b5f61178d602383611583565b915061179882611733565b604082019050919050565b5f6020820190508181035f8301526117ba81611781565b9050919050565b7f4e487b71000000000000000000000000000000000000000000000000000000005f52601160045260245ffd5b5f6117f882611121565b91507fffffffffffffffffffffffffffffffffffffffffffffffffffffffffffffffff820361182a576118296117c1565b5b600182019050919050565b5f6060820190506118485f8301866111f1565b61185560208301856111f1565b61186260408301846111f1565b94935050505056fea2646970667358221220c46aae865d00d0e20eaf1e62d2f91b89b213f3dc677f3fcf49a17eacde5208da64736f6c634300081c0033","opcodes":"PUSH1 0x80 PUSH1 0x40 MSTORE CALLVALUE DUP1 ISZERO PUSH1 0xE JUMPI PUSH0 PUSH0 REVERT JUMPDEST POP PUSH0 PUSH1 0x1 DUP2 SWAP1 SSTORE POP PUSH2 0x18A0 DUP1 PUSH2 0x23 PUSH0 CODECOPY PUSH0 RETURN INVALID PUSH1 0x80 PUSH1 0x40 MSTORE PUSH1 0x4 CALLDATASIZE LT PUSH2 0x7A JUMPI PUSH0 CALLDATALOAD PUSH1 0xE0 SHR DUP1 PUSH4 0x8365DA54 GT PUSH2 0x4D JUMPI DUP1 PUSH4 0x8365DA54 EQ PUSH2 0x13B JUMPI DUP1 PUSH4 0xAACE20B7 EQ PUSH2 0x17E JUMPI DUP1 PUSH4 0xB7DFD93D EQ PUSH2 0x1A8 JUMPI DUP1 PUSH4 0xCBC4B181 EQ PUSH2 0x1E4 JUMPI PUSH2 0x7A JUMP JUMPDEST DUP1 PUSH4 0x179A878C EQ PUSH2 0x7E JUMPI DUP1 PUSH4 0x5667E02F EQ PUSH2 0xA6 JUMPI DUP1 PUSH4 0x7D30B244 EQ PUSH2 0xE9 JUMPI DUP1 PUSH4 0x7FF5265D EQ PUSH2 0x113 JUMPI JUMPDEST PUSH0 PUSH0 REVERT JUMPDEST CALLVALUE DUP1 ISZERO PUSH2 0x89 JUMPI PUSH0 PUSH0 REVERT JUMPDEST POP PUSH2 0xA4 PUSH1 0x4 DUP1 CALLDATASIZE SUB DUP2 ADD SWAP1 PUSH2 0x9F SWAP2 SWAP1 PUSH2 0x1154 JUMP JUMPDEST PUSH2 0x200 JUMP JUMPDEST STOP JUMPDEST CALLVALUE DUP1 ISZERO PUSH2 0xB1 JUMPI PUSH0 PUSH0 REVERT JUMPDEST POP PUSH2 0xCC PUSH1 0x4 DUP1 CALLDATASIZE SUB DUP2 ADD SWAP1 PUSH2 0xC7 SWAP2 SWAP1 PUSH2 0x11A4 JUMP JUMPDEST PUSH2 0x5C2 JUMP JUMPDEST PUSH1 0x40 MLOAD PUSH2 0xE0 SWAP9 SWAP8 SWAP7 SWAP6 SWAP5 SWAP4 SWAP3 SWAP2 SWAP1 PUSH2 0x128D JUMP JUMPDEST PUSH1 0x40 MLOAD DUP1 SWAP2 SUB SWAP1 RETURN JUMPDEST CALLVALUE DUP1 ISZERO PUSH2 0xF4 JUMPI PUSH0 PUSH0 REVERT JUMPDEST POP PUSH2 0xFD PUSH2 0x676 JUMP JUMPDEST PUSH1 0x40 MLOAD PUSH2 0x10A SWAP2 SWAP1 PUSH2 0x148E JUMP JUMPDEST PUSH1 0x40 MLOAD DUP1 SWAP2 SUB SWAP1 RETURN JUMPDEST CALLVALUE DUP1 ISZERO PUSH2 0x11E JUMPI PUSH0 PUSH0 REVERT JUMPDEST POP PUSH2 0x139 PUSH1 0x4 DUP1 CALLDATASIZE SUB DUP2 ADD SWAP1 PUSH2 0x134 SWAP2 SWAP1 PUSH2 0x1154 JUMP JUMPDEST PUSH2 0x7F9 JUMP JUMPDEST STOP JUMPDEST CALLVALUE DUP1 ISZERO PUSH2 0x146 JUMPI PUSH0 PUSH0 REVERT JUMPDEST POP PUSH2 0x161 PUSH1 0x4 DUP1 CALLDATASIZE SUB DUP2 ADD SWAP1 PUSH2 0x15C SWAP2 SWAP1 PUSH2 0x11A4 JUMP JUMPDEST PUSH2 0xA48 JUMP JUMPDEST PUSH1 0x40 MLOAD PUSH2 0x175 SWAP9 SWAP8 SWAP7 SWAP6 SWAP5 SWAP4 SWAP3 SWAP2 SWAP1 PUSH2 0x128D JUMP JUMPDEST PUSH1 0x40 MLOAD DUP1 SWAP2 SUB SWAP1 RETURN JUMPDEST CALLVALUE DUP1 ISZERO PUSH2 0x189 JUMPI PUSH0 PUSH0 REVERT JUMPDEST POP PUSH2 0x192 PUSH2 0xC24 JUMP JUMPDEST PUSH1 0x40 MLOAD PUSH2 0x19F SWAP2 SWAP1 PUSH2 0x14AE JUMP JUMPDEST PUSH1 0x40 MLOAD DUP1 SWAP2 SUB SWAP1 RETURN JUMPDEST CALLVALUE DUP1 ISZERO PUSH2 0x1B3 JUMPI PUSH0 PUSH0 REVERT JUMPDEST POP PUSH2 0x1CE PUSH1 0x4 DUP1 CALLDATASIZE SUB DUP2 ADD SWAP1 PUSH2 0x1C9 SWAP2 SWAP1 PUSH2 0x14C7 JUMP JUMPDEST PUSH2 0xC2A JUMP JUMPDEST PUSH1 0x40 MLOAD PUSH2 0x1DB SWAP2 SWAP1 PUSH2 0x14AE JUMP JUMPDEST PUSH1 0x40 MLOAD DUP1 SWAP2 SUB SWAP1 RETURN JUMPDEST PUSH2 0x1FE PUSH1 0x4 DUP1 CALLDATASIZE SUB DUP2 ADD SWAP1 PUSH2 0x1F9 SWAP2 SWAP1 PUSH2 0x14F2 JUMP JUMPDEST PUSH2 0xC72 JUMP JUMPDEST STOP JUMPDEST PUSH0 PUSH0 PUSH0 DUP6 PUSH20 0xFFFFFFFFFFFFFFFFFFFFFFFFFFFFFFFFFFFFFFFF AND PUSH20 0xFFFFFFFFFFFFFFFFFFFFFFFFFFFFFFFFFFFFFFFF AND DUP2 MSTORE PUSH1 0x20 ADD SWAP1 DUP2 MSTORE PUSH1 0x20 ADD PUSH0 KECCAK256 DUP3 DUP2 SLOAD DUP2 LT PUSH2 0x24F JUMPI PUSH2 0x24E PUSH2 0x1556 JUMP JUMPDEST JUMPDEST SWAP1 PUSH0 MSTORE PUSH1 0x20 PUSH0 KECCAK256 SWAP1 PUSH1 0x7 MUL ADD SWAP1 POP PUSH0 PUSH1 0x2 DUP4 DUP2 SLOAD DUP2 LT PUSH2 0x272 JUMPI PUSH2 0x271 PUSH2 0x1556 JUMP JUMPDEST JUMPDEST SWAP1 PUSH0 MSTORE PUSH1 0x20 PUSH0 KECCAK256 SWAP1 PUSH1 0x7 MUL ADD SWAP1 POP DUP4 PUSH20 0xFFFFFFFFFFFFFFFFFFFFFFFFFFFFFFFFFFFFFFFF AND DUP3 PUSH1 0x1 ADD PUSH0 SWAP1 SLOAD SWAP1 PUSH2 0x100 EXP SWAP1 DIV PUSH20 0xFFFFFFFFFFFFFFFFFFFFFFFFFFFFFFFFFFFFFFFF AND PUSH20 0xFFFFFFFFFFFFFFFFFFFFFFFFFFFFFFFFFFFFFFFF AND EQ PUSH2 0x311 JUMPI PUSH1 0x40 MLOAD PUSH32 0x8C379A000000000000000000000000000000000000000000000000000000000 DUP2 MSTORE PUSH1 0x4 ADD PUSH2 0x308 SWAP1 PUSH2 0x15DD JUMP JUMPDEST PUSH1 0x40 MLOAD DUP1 SWAP2 SUB SWAP1 REVERT JUMPDEST PUSH1 0x1 PUSH1 0x2 DUP2 GT ISZERO PUSH2 0x325 JUMPI PUSH2 0x324 PUSH2 0x1200 JUMP JUMPDEST JUMPDEST DUP3 PUSH1 0x6 ADD PUSH0 SWAP1 SLOAD SWAP1 PUSH2 0x100 EXP SWAP1 DIV PUSH1 0xFF AND PUSH1 0x2 DUP2 GT ISZERO PUSH2 0x348 JUMPI PUSH2 0x347 PUSH2 0x1200 JUMP JUMPDEST JUMPDEST EQ PUSH2 0x388 JUMPI PUSH1 0x40 MLOAD PUSH32 0x8C379A000000000000000000000000000000000000000000000000000000000 DUP2 MSTORE PUSH1 0x4 ADD PUSH2 0x37F SWAP1 PUSH2 0x1645 JUMP JUMPDEST PUSH1 0x40 MLOAD DUP1 SWAP2 SUB SWAP1 REVERT JUMPDEST DUP2 PUSH1 0x6 ADD PUSH1 0x1 SWAP1 SLOAD SWAP1 PUSH2 0x100 EXP SWAP1 DIV PUSH1 0xFF AND ISZERO PUSH2 0x3DA JUMPI PUSH1 0x40 MLOAD PUSH32 0x8C379A000000000000000000000000000000000000000000000000000000000 DUP2 MSTORE PUSH1 0x4 ADD PUSH2 0x3D1 SWAP1 PUSH2 0x16AD JUMP JUMPDEST PUSH1 0x40 MLOAD DUP1 SWAP2 SUB SWAP1 REVERT JUMPDEST PUSH1 0x2 DUP3 PUSH1 0x6 ADD PUSH0 PUSH2 0x100 EXP DUP2 SLOAD DUP2 PUSH1 0xFF MUL NOT AND SWAP1 DUP4 PUSH1 0x2 DUP2 GT ISZERO PUSH2 0x401 JUMPI PUSH2 0x400 PUSH2 0x1200 JUMP JUMPDEST JUMPDEST MUL OR SWAP1 SSTORE POP PUSH1 0x2 DUP2 PUSH1 0x6 ADD PUSH0 PUSH2 0x100 EXP DUP2 SLOAD DUP2 PUSH1 0xFF MUL NOT AND SWAP1 DUP4 PUSH1 0x2 DUP2 GT ISZERO PUSH2 0x42D JUMPI PUSH2 0x42C PUSH2 0x1200 JUMP JUMPDEST JUMPDEST MUL OR SWAP1 SSTORE POP TIMESTAMP DUP2 PUSH1 0x3 ADD DUP2 SWAP1 SSTORE POP TIMESTAMP DUP3 PUSH1 0x3 ADD DUP2 SWAP1 SSTORE POP PUSH0 DUP3 PUSH1 0x5 ADD SLOAD SWAP1 POP DUP3 PUSH0 ADD PUSH0 SWAP1 SLOAD SWAP1 PUSH2 0x100 EXP SWAP1 DIV PUSH20 0xFFFFFFFFFFFFFFFFFFFFFFFFFFFFFFFFFFFFFFFF AND PUSH20 0xFFFFFFFFFFFFFFFFFFFFFFFFFFFFFFFFFFFFFFFF AND PUSH2 0x8FC DUP3 SWAP1 DUP2 ISZERO MUL SWAP1 PUSH1 0x40 MLOAD PUSH0 PUSH1 0x40 MLOAD DUP1 DUP4 SUB DUP2 DUP6 DUP9 DUP9 CALL SWAP4 POP POP POP POP ISZERO DUP1 ISZERO PUSH2 0x4B1 JUMPI RETURNDATASIZE PUSH0 PUSH0 RETURNDATACOPY RETURNDATASIZE PUSH0 REVERT JUMPDEST POP PUSH1 0x1 DUP4 PUSH1 0x6 ADD PUSH1 0x1 PUSH2 0x100 EXP DUP2 SLOAD DUP2 PUSH1 0xFF MUL NOT AND SWAP1 DUP4 ISZERO ISZERO MUL OR SWAP1 SSTORE POP PUSH1 0x1 DUP3 PUSH1 0x6 ADD PUSH1 0x1 PUSH2 0x100 EXP DUP2 SLOAD DUP2 PUSH1 0xFF MUL NOT AND SWAP1 DUP4 ISZERO ISZERO MUL OR SWAP1 SSTORE POP DUP5 PUSH20 0xFFFFFFFFFFFFFFFFFFFFFFFFFFFFFFFFFFFFFFFF AND DUP7 PUSH20 0xFFFFFFFFFFFFFFFFFFFFFFFFFFFFFFFFFFFFFFFF AND PUSH32 0x42F7806634B6ED7278BAB6408B6FA250A92160F4D662CF40EF45A6044AEADC5A DUP6 PUSH1 0x3 ADD SLOAD PUSH1 0x40 MLOAD PUSH2 0x54D SWAP2 SWAP1 PUSH2 0x14AE JUMP JUMPDEST PUSH1 0x40 MLOAD DUP1 SWAP2 SUB SWAP1 LOG3 DUP5 PUSH20 0xFFFFFFFFFFFFFFFFFFFFFFFFFFFFFFFFFFFFFFFF AND DUP7 PUSH20 0xFFFFFFFFFFFFFFFFFFFFFFFFFFFFFFFFFFFFFFFF AND PUSH32 0x2B6F2473AEBAFAF8D0889669490135928EC4454D2E29A103FD39693BBCA6AEF1 DUP4 PUSH1 0x40 MLOAD PUSH2 0x5B2 SWAP2 SWAP1 PUSH2 0x14AE JUMP JUMPDEST PUSH1 0x40 MLOAD DUP1 SWAP2 SUB SWAP1 LOG3 POP POP POP POP POP POP JUMP JUMPDEST PUSH0 PUSH1 0x20 MSTORE DUP2 PUSH0 MSTORE PUSH1 0x40 PUSH0 KECCAK256 DUP2 DUP2 SLOAD DUP2 LT PUSH2 0x5DA JUMPI PUSH0 DUP1 REVERT JUMPDEST SWAP1 PUSH0 MSTORE PUSH1 0x20 PUSH0 KECCAK256 SWAP1 PUSH1 0x7 MUL ADD PUSH0 SWAP2 POP SWAP2 POP POP DUP1 PUSH0 ADD PUSH0 SWAP1 SLOAD SWAP1 PUSH2 0x100 EXP SWAP1 DIV PUSH20 0xFFFFFFFFFFFFFFFFFFFFFFFFFFFFFFFFFFFFFFFF AND SWAP1 DUP1 PUSH1 0x1 ADD PUSH0 SWAP1 SLOAD SWAP1 PUSH2 0x100 EXP SWAP1 DIV PUSH20 0xFFFFFFFFFFFFFFFFFFFFFFFFFFFFFFFFFFFFFFFF AND SWAP1 DUP1 PUSH1 0x2 ADD SLOAD SWAP1 DUP1 PUSH1 0x3 ADD SLOAD SWAP1 DUP1 PUSH1 0x4 ADD SLOAD SWAP1 DUP1 PUSH1 0x5 ADD SLOAD SWAP1 DUP1 PUSH1 0x6 ADD PUSH0 SWAP1 SLOAD SWAP1 PUSH2 0x100 EXP SWAP1 DIV PUSH1 0xFF AND SWAP1 DUP1 PUSH1 0x6 ADD PUSH1 0x1 SWAP1 SLOAD SWAP1 PUSH2 0x100 EXP SWAP1 DIV PUSH1 0xFF AND SWAP1 POP DUP9 JUMP JUMPDEST PUSH1 0x60 PUSH1 0x2 DUP1 SLOAD DUP1 PUSH1 0x20 MUL PUSH1 0x20 ADD PUSH1 0x40 MLOAD SWAP1 DUP2 ADD PUSH1 0x40 MSTORE DUP1 SWAP3 SWAP2 SWAP1 DUP2 DUP2 MSTORE PUSH1 0x20 ADD PUSH0 SWAP1 JUMPDEST DUP3 DUP3 LT ISZERO PUSH2 0x7F0 JUMPI DUP4 DUP3 SWAP1 PUSH0 MSTORE PUSH1 0x20 PUSH0 KECCAK256 SWAP1 PUSH1 0x7 MUL ADD PUSH1 0x40 MLOAD DUP1 PUSH2 0x100 ADD PUSH1 0x40 MSTORE SWAP1 DUP2 PUSH0 DUP3 ADD PUSH0 SWAP1 SLOAD SWAP1 PUSH2 0x100 EXP SWAP1 DIV PUSH20 0xFFFFFFFFFFFFFFFFFFFFFFFFFFFFFFFFFFFFFFFF AND PUSH20 0xFFFFFFFFFFFFFFFFFFFFFFFFFFFFFFFFFFFFFFFF AND PUSH20 0xFFFFFFFFFFFFFFFFFFFFFFFFFFFFFFFFFFFFFFFF AND DUP2 MSTORE PUSH1 0x20 ADD PUSH1 0x1 DUP3 ADD PUSH0 SWAP1 SLOAD SWAP1 PUSH2 0x100 EXP SWAP1 DIV PUSH20 0xFFFFFFFFFFFFFFFFFFFFFFFFFFFFFFFFFFFFFFFF AND PUSH20 0xFFFFFFFFFFFFFFFFFFFFFFFFFFFFFFFFFFFFFFFF AND PUSH20 0xFFFFFFFFFFFFFFFFFFFFFFFFFFFFFFFFFFFFFFFF AND DUP2 MSTORE PUSH1 0x20 ADD PUSH1 0x2 DUP3 ADD SLOAD DUP2 MSTORE PUSH1 0x20 ADD PUSH1 0x3 DUP3 ADD SLOAD DUP2 MSTORE PUSH1 0x20 ADD PUSH1 0x4 DUP3 ADD SLOAD DUP2 MSTORE PUSH1 0x20 ADD PUSH1 0x5 DUP3 ADD SLOAD DUP2 MSTORE PUSH1 0x20 ADD PUSH1 0x6 DUP3 ADD PUSH0 SWAP1 SLOAD SWAP1 PUSH2 0x100 EXP SWAP1 DIV PUSH1 0xFF AND PUSH1 0x2 DUP2 GT ISZERO PUSH2 0x7B0 JUMPI PUSH2 0x7AF PUSH2 0x1200 JUMP JUMPDEST JUMPDEST PUSH1 0x2 DUP2 GT ISZERO PUSH2 0x7C2 JUMPI PUSH2 0x7C1 PUSH2 0x1200 JUMP JUMPDEST JUMPDEST DUP2 MSTORE PUSH1 0x20 ADD PUSH1 0x6 DUP3 ADD PUSH1 0x1 SWAP1 SLOAD SWAP1 PUSH2 0x100 EXP SWAP1 DIV PUSH1 0xFF AND ISZERO ISZERO ISZERO ISZERO DUP2 MSTORE POP POP DUP2 MSTORE PUSH1 0x20 ADD SWAP1 PUSH1 0x1 ADD SWAP1 PUSH2 0x699 JUMP JUMPDEST POP POP POP POP SWAP1 POP SWAP1 JUMP JUMPDEST PUSH0 PUSH0 PUSH0 DUP6 PUSH20 0xFFFFFFFFFFFFFFFFFFFFFFFFFFFFFFFFFFFFFFFF AND PUSH20 0xFFFFFFFFFFFFFFFFFFFFFFFFFFFFFFFFFFFFFFFF AND DUP2 MSTORE PUSH1 0x20 ADD SWAP1 DUP2 MSTORE PUSH1 0x20 ADD PUSH0 KECCAK256 DUP3 DUP2 SLOAD DUP2 LT PUSH2 0x848 JUMPI PUSH2 0x847 PUSH2 0x1556 JUMP JUMPDEST JUMPDEST SWAP1 PUSH0 MSTORE PUSH1 0x20 PUSH0 KECCAK256 SWAP1 PUSH1 0x7 MUL ADD SWAP1 POP PUSH0 PUSH1 0x2 DUP4 DUP2 SLOAD DUP2 LT PUSH2 0x86B JUMPI PUSH2 0x86A PUSH2 0x1556 JUMP JUMPDEST JUMPDEST SWAP1 PUSH0 MSTORE PUSH1 0x20 PUSH0 KECCAK256 SWAP1 PUSH1 0x7 MUL ADD SWAP1 POP DUP4 PUSH20 0xFFFFFFFFFFFFFFFFFFFFFFFFFFFFFFFFFFFFFFFF AND DUP3 PUSH1 0x1 ADD PUSH0 SWAP1 SLOAD SWAP1 PUSH2 0x100 EXP SWAP1 DIV PUSH20 0xFFFFFFFFFFFFFFFFFFFFFFFFFFFFFFFFFFFFFFFF AND PUSH20 0xFFFFFFFFFFFFFFFFFFFFFFFFFFFFFFFFFFFFFFFF AND EQ PUSH2 0x90A JUMPI PUSH1 0x40 MLOAD PUSH32 0x8C379A000000000000000000000000000000000000000000000000000000000 DUP2 MSTORE PUSH1 0x4 ADD PUSH2 0x901 SWAP1 PUSH2 0x15DD JUMP JUMPDEST PUSH1 0x40 MLOAD DUP1 SWAP2 SUB SWAP1 REVERT JUMPDEST PUSH0 PUSH1 0x2 DUP2 GT ISZERO PUSH2 0x91D JUMPI PUSH2 0x91C PUSH2 0x1200 JUMP JUMPDEST JUMPDEST DUP3 PUSH1 0x6 ADD PUSH0 SWAP1 SLOAD SWAP1 PUSH2 0x100 EXP SWAP1 DIV PUSH1 0xFF AND PUSH1 0x2 DUP2 GT ISZERO PUSH2 0x940 JUMPI PUSH2 0x93F PUSH2 0x1200 JUMP JUMPDEST JUMPDEST EQ PUSH2 0x980 JUMPI PUSH1 0x40 MLOAD PUSH32 0x8C379A000000000000000000000000000000000000000000000000000000000 DUP2 MSTORE PUSH1 0x4 ADD PUSH2 0x977 SWAP1 PUSH2 0x1715 JUMP JUMPDEST PUSH1 0x40 MLOAD DUP1 SWAP2 SUB SWAP1 REVERT JUMPDEST PUSH1 0x1 DUP3 PUSH1 0x6 ADD PUSH0 PUSH2 0x100 EXP DUP2 SLOAD DUP2 PUSH1 0xFF MUL NOT AND SWAP1 DUP4 PUSH1 0x2 DUP2 GT ISZERO PUSH2 0x9A7 JUMPI PUSH2 0x9A6 PUSH2 0x1200 JUMP JUMPDEST JUMPDEST MUL OR SWAP1 SSTORE POP PUSH1 0x1 DUP2 PUSH1 0x6 ADD PUSH0 PUSH2 0x100 EXP DUP2 SLOAD DUP2 PUSH1 0xFF MUL NOT AND SWAP1 DUP4 PUSH1 0x2 DUP2 GT ISZERO PUSH2 0x9D3 JUMPI PUSH2 0x9D2 PUSH2 0x1200 JUMP JUMPDEST JUMPDEST MUL OR SWAP1 SSTORE POP DUP4 PUSH20 0xFFFFFFFFFFFFFFFFFFFFFFFFFFFFFFFFFFFFFFFF AND DUP6 PUSH20 0xFFFFFFFFFFFFFFFFFFFFFFFFFFFFFFFFFFFFFFFF AND PUSH32 0xAAFAB9F94340179FF9CEFD29621E1772A4B8EFAB8023163838F1B0A8F6CE5DF5 DUP5 PUSH1 0x2 ADD SLOAD PUSH1 0x40 MLOAD PUSH2 0xA39 SWAP2 SWAP1 PUSH2 0x14AE JUMP JUMPDEST PUSH1 0x40 MLOAD DUP1 SWAP2 SUB SWAP1 LOG3 POP POP POP POP POP JUMP JUMPDEST PUSH0 PUSH0 PUSH0 PUSH0 PUSH0 PUSH0 PUSH0 PUSH0 PUSH0 PUSH0 PUSH0 DUP13 PUSH20 0xFFFFFFFFFFFFFFFFFFFFFFFFFFFFFFFFFFFFFFFF AND PUSH20 0xFFFFFFFFFFFFFFFFFFFFFFFFFFFFFFFFFFFFFFFF AND DUP2 MSTORE PUSH1 0x20 ADD SWAP1 DUP2 MSTORE PUSH1 0x20 ADD PUSH0 KECCAK256 DUP11 DUP2 SLOAD DUP2 LT PUSH2 0xA9F JUMPI PUSH2 0xA9E PUSH2 0x1556 JUMP JUMPDEST JUMPDEST SWAP1 PUSH0 MSTORE PUSH1 0x20 PUSH0 KECCAK256 SWAP1 PUSH1 0x7 MUL ADD PUSH1 0x40 MLOAD DUP1 PUSH2 0x100 ADD PUSH1 0x40 MSTORE SWAP1 DUP2 PUSH0 DUP3 ADD PUSH0 SWAP1 SLOAD SWAP1 PUSH2 0x100 EXP SWAP1 DIV PUSH20 0xFFFFFFFFFFFFFFFFFFFFFFFFFFFFFFFFFFFFFFFF AND PUSH20 0xFFFFFFFFFFFFFFFFFFFFFFFFFFFFFFFFFFFFFFFF AND PUSH20 0xFFFFFFFFFFFFFFFFFFFFFFFFFFFFFFFFFFFFFFFF AND DUP2 MSTORE PUSH1 0x20 ADD PUSH1 0x1 DUP3 ADD PUSH0 SWAP1 SLOAD SWAP1 PUSH2 0x100 EXP SWAP1 DIV PUSH20 0xFFFFFFFFFFFFFFFFFFFFFFFFFFFFFFFFFFFFFFFF AND PUSH20 0xFFFFFFFFFFFFFFFFFFFFFFFFFFFFFFFFFFFFFFFF AND PUSH20 0xFFFFFFFFFFFFFFFFFFFFFFFFFFFFFFFFFFFFFFFF AND DUP2 MSTORE PUSH1 0x20 ADD PUSH1 0x2 DUP3 ADD SLOAD DUP2 MSTORE PUSH1 0x20 ADD PUSH1 0x3 DUP3 ADD SLOAD DUP2 MSTORE PUSH1 0x20 ADD PUSH1 0x4 DUP3 ADD SLOAD DUP2 MSTORE PUSH1 0x20 ADD PUSH1 0x5 DUP3 ADD SLOAD DUP2 MSTORE PUSH1 0x20 ADD PUSH1 0x6 DUP3 ADD PUSH0 SWAP1 SLOAD SWAP1 PUSH2 0x100 EXP SWAP1 DIV PUSH1 0xFF AND PUSH1 0x2 DUP2 GT ISZERO PUSH2 0xBAC JUMPI PUSH2 0xBAB PUSH2 0x1200 JUMP JUMPDEST JUMPDEST PUSH1 0x2 DUP2 GT ISZERO PUSH2 0xBBE JUMPI PUSH2 0xBBD PUSH2 0x1200 JUMP JUMPDEST JUMPDEST DUP2 MSTORE PUSH1 0x20 ADD PUSH1 0x6 DUP3 ADD PUSH1 0x1 SWAP1 SLOAD SWAP1 PUSH2 0x100 EXP SWAP1 DIV PUSH1 0xFF AND ISZERO ISZERO ISZERO ISZERO DUP2 MSTORE POP POP SWAP1 POP DUP1 PUSH0 ADD MLOAD DUP2 PUSH1 0x20 ADD MLOAD DUP3 PUSH1 0x40 ADD MLOAD DUP4 PUSH1 0x60 ADD MLOAD DUP5 PUSH1 0x80 ADD MLOAD DUP6 PUSH1 0xA0 ADD MLOAD DUP7 PUSH1 0xC0 ADD MLOAD DUP8 PUSH1 0xE0 ADD MLOAD SWAP9 POP SWAP9 POP SWAP9 POP SWAP9 POP SWAP9 POP SWAP9 POP SWAP9 POP SWAP9 POP POP SWAP3 SWAP6 SWAP9 POP SWAP3 SWAP6 SWAP9 SWAP1 SWAP4 SWAP7 POP JUMP JUMPDEST PUSH1 0x1 SLOAD DUP2 JUMP JUMPDEST PUSH0 PUSH0 PUSH0 DUP4 PUSH20 0xFFFFFFFFFFFFFFFFFFFFFFFFFFFFFFFFFFFFFFFF AND PUSH20 0xFFFFFFFFFFFFFFFFFFFFFFFFFFFFFFFFFFFFFFFF AND DUP2 MSTORE PUSH1 0x20 ADD SWAP1 DUP2 MSTORE PUSH1 0x20 ADD PUSH0 KECCAK256 DUP1 SLOAD SWAP1 POP SWAP1 POP SWAP2 SWAP1 POP JUMP JUMPDEST DUP1 CALLVALUE EQ PUSH2 0xCB4 JUMPI PUSH1 0x40 MLOAD PUSH32 0x8C379A000000000000000000000000000000000000000000000000000000000 DUP2 MSTORE PUSH1 0x4 ADD PUSH2 0xCAB SWAP1 PUSH2 0x17A3 JUMP JUMPDEST PUSH1 0x40 MLOAD DUP1 SWAP2 SUB SWAP1 REVERT JUMPDEST PUSH0 PUSH1 0x40 MLOAD DUP1 PUSH2 0x100 ADD PUSH1 0x40 MSTORE DUP1 CALLER PUSH20 0xFFFFFFFFFFFFFFFFFFFFFFFFFFFFFFFFFFFFFFFF AND DUP2 MSTORE PUSH1 0x20 ADD DUP7 PUSH20 0xFFFFFFFFFFFFFFFFFFFFFFFFFFFFFFFFFFFFFFFF AND DUP2 MSTORE PUSH1 0x20 ADD DUP6 DUP2 MSTORE PUSH1 0x20 ADD PUSH0 DUP2 MSTORE PUSH1 0x20 ADD DUP5 DUP2 MSTORE PUSH1 0x20 ADD DUP4 DUP2 MSTORE PUSH1 0x20 ADD PUSH0 PUSH1 0x2 DUP2 GT ISZERO PUSH2 0xD24 JUMPI PUSH2 0xD23 PUSH2 0x1200 JUMP JUMPDEST JUMPDEST DUP2 MSTORE PUSH1 0x20 ADD PUSH0 ISZERO ISZERO DUP2 MSTORE POP SWAP1 POP PUSH0 PUSH0 CALLER PUSH20 0xFFFFFFFFFFFFFFFFFFFFFFFFFFFFFFFFFFFFFFFF AND PUSH20 0xFFFFFFFFFFFFFFFFFFFFFFFFFFFFFFFFFFFFFFFF AND DUP2 MSTORE PUSH1 0x20 ADD SWAP1 DUP2 MSTORE PUSH1 0x20 ADD PUSH0 KECCAK256 DUP2 SWAP1 DUP1 PUSH1 0x1 DUP2 SLOAD ADD DUP1 DUP3 SSTORE DUP1 SWAP2 POP POP PUSH1 0x1 SWAP1 SUB SWAP1 PUSH0 MSTORE PUSH1 0x20 PUSH0 KECCAK256 SWAP1 PUSH1 0x7 MUL ADD PUSH0 SWAP1 SWAP2 SWAP1 SWAP2 SWAP1 SWAP2 POP PUSH0 DUP3 ADD MLOAD DUP2 PUSH0 ADD PUSH0 PUSH2 0x100 EXP DUP2 SLOAD DUP2 PUSH20 0xFFFFFFFFFFFFFFFFFFFFFFFFFFFFFFFFFFFFFFFF MUL NOT AND SWAP1 DUP4 PUSH20 0xFFFFFFFFFFFFFFFFFFFFFFFFFFFFFFFFFFFFFFFF AND MUL OR SWAP1 SSTORE POP PUSH1 0x20 DUP3 ADD MLOAD DUP2 PUSH1 0x1 ADD PUSH0 PUSH2 0x100 EXP DUP2 SLOAD DUP2 PUSH20 0xFFFFFFFFFFFFFFFFFFFFFFFFFFFFFFFFFFFFFFFF MUL NOT AND SWAP1 DUP4 PUSH20 0xFFFFFFFFFFFFFFFFFFFFFFFFFFFFFFFFFFFFFFFF AND MUL OR SWAP1 SSTORE POP PUSH1 0x40 DUP3 ADD MLOAD DUP2 PUSH1 0x2 ADD SSTORE PUSH1 0x60 DUP3 ADD MLOAD DUP2 PUSH1 0x3 ADD SSTORE PUSH1 0x80 DUP3 ADD MLOAD DUP2 PUSH1 0x4 ADD SSTORE PUSH1 0xA0 DUP3 ADD MLOAD DUP2 PUSH1 0x5 ADD SSTORE PUSH1 0xC0 DUP3 ADD MLOAD DUP2 PUSH1 0x6 ADD PUSH0 PUSH2 0x100 EXP DUP2 SLOAD DUP2 PUSH1 0xFF MUL NOT AND SWAP1 DUP4 PUSH1 0x2 DUP2 GT ISZERO PUSH2 0xE70 JUMPI PUSH2 0xE6F PUSH2 0x1200 JUMP JUMPDEST JUMPDEST MUL OR SWAP1 SSTORE POP PUSH1 0xE0 DUP3 ADD MLOAD DUP2 PUSH1 0x6 ADD PUSH1 0x1 PUSH2 0x100 EXP DUP2 SLOAD DUP2 PUSH1 0xFF MUL NOT AND SWAP1 DUP4 ISZERO ISZERO MUL OR SWAP1 SSTORE POP POP POP PUSH1 0x1 PUSH0 DUP2 SLOAD DUP1 SWAP3 SWAP2 SWAP1 PUSH2 0xEA9 SWAP1 PUSH2 0x17EE JUMP JUMPDEST SWAP2 SWAP1 POP SSTORE POP PUSH1 0x2 PUSH1 0x40 MLOAD DUP1 PUSH2 0x100 ADD PUSH1 0x40 MSTORE DUP1 CALLER PUSH20 0xFFFFFFFFFFFFFFFFFFFFFFFFFFFFFFFFFFFFFFFF AND DUP2 MSTORE PUSH1 0x20 ADD DUP8 PUSH20 0xFFFFFFFFFFFFFFFFFFFFFFFFFFFFFFFFFFFFFFFF AND DUP2 MSTORE PUSH1 0x20 ADD DUP7 DUP2 MSTORE PUSH1 0x20 ADD PUSH0 DUP2 MSTORE PUSH1 0x20 ADD DUP6 DUP2 MSTORE PUSH1 0x20 ADD DUP5 DUP2 MSTORE PUSH1 0x20 ADD PUSH0 PUSH1 0x2 DUP2 GT ISZERO PUSH2 0xF1F JUMPI PUSH2 0xF1E PUSH2 0x1200 JUMP JUMPDEST JUMPDEST DUP2 MSTORE PUSH1 0x20 ADD PUSH0 ISZERO ISZERO DUP2 MSTORE POP SWAP1 DUP1 PUSH1 0x1 DUP2 SLOAD ADD DUP1 DUP3 SSTORE DUP1 SWAP2 POP POP PUSH1 0x1 SWAP1 SUB SWAP1 PUSH0 MSTORE PUSH1 0x20 PUSH0 KECCAK256 SWAP1 PUSH1 0x7 MUL ADD PUSH0 SWAP1 SWAP2 SWAP1 SWAP2 SWAP1 SWAP2 POP PUSH0 DUP3 ADD MLOAD DUP2 PUSH0 ADD PUSH0 PUSH2 0x100 EXP DUP2 SLOAD DUP2 PUSH20 0xFFFFFFFFFFFFFFFFFFFFFFFFFFFFFFFFFFFFFFFF MUL NOT AND SWAP1 DUP4 PUSH20 0xFFFFFFFFFFFFFFFFFFFFFFFFFFFFFFFFFFFFFFFF AND MUL OR SWAP1 SSTORE POP PUSH1 0x20 DUP3 ADD MLOAD DUP2 PUSH1 0x1 ADD PUSH0 PUSH2 0x100 EXP DUP2 SLOAD DUP2 PUSH20 0xFFFFFFFFFFFFFFFFFFFFFFFFFFFFFFFFFFFFFFFF MUL NOT AND SWAP1 DUP4 PUSH20 0xFFFFFFFFFFFFFFFFFFFFFFFFFFFFFFFFFFFFFFFF AND MUL OR SWAP1 SSTORE POP PUSH1 0x40 DUP3 ADD MLOAD DUP2 PUSH1 0x2 ADD SSTORE PUSH1 0x60 DUP3 ADD MLOAD DUP2 PUSH1 0x3 ADD SSTORE PUSH1 0x80 DUP3 ADD MLOAD DUP2 PUSH1 0x4 ADD SSTORE PUSH1 0xA0 DUP3 ADD MLOAD DUP2 PUSH1 0x5 ADD SSTORE PUSH1 0xC0 DUP3 ADD MLOAD DUP2 PUSH1 0x6 ADD PUSH0 PUSH2 0x100 EXP DUP2 SLOAD DUP2 PUSH1 0xFF MUL NOT AND SWAP1 DUP4 PUSH1 0x2 DUP2 GT ISZERO PUSH2 0x102C JUMPI PUSH2 0x102B PUSH2 0x1200 JUMP JUMPDEST JUMPDEST MUL OR SWAP1 SSTORE POP PUSH1 0xE0 DUP3 ADD MLOAD DUP2 PUSH1 0x6 ADD PUSH1 0x1 PUSH2 0x100 EXP DUP2 SLOAD DUP2 PUSH1 0xFF MUL NOT AND SWAP1 DUP4 ISZERO ISZERO MUL OR SWAP1 SSTORE POP POP POP DUP5 PUSH20 0xFFFFFFFFFFFFFFFFFFFFFFFFFFFFFFFFFFFFFFFF AND CALLER PUSH20 0xFFFFFFFFFFFFFFFFFFFFFFFFFFFFFFFFFFFFFFFF AND PUSH32 0x5001B34ECF2DB5B7BBEDDCBBE761EC9ECADCC7638018B98CE3E24995B0E946B6 DUP7 DUP7 DUP7 PUSH1 0x40 MLOAD PUSH2 0x10B4 SWAP4 SWAP3 SWAP2 SWAP1 PUSH2 0x1835 JUMP JUMPDEST PUSH1 0x40 MLOAD DUP1 SWAP2 SUB SWAP1 LOG3 POP POP POP POP POP JUMP JUMPDEST PUSH0 PUSH0 REVERT JUMPDEST PUSH0 PUSH20 0xFFFFFFFFFFFFFFFFFFFFFFFFFFFFFFFFFFFFFFFF DUP3 AND SWAP1 POP SWAP2 SWAP1 POP JUMP JUMPDEST PUSH0 PUSH2 0x10F0 DUP3 PUSH2 0x10C7 JUMP JUMPDEST SWAP1 POP SWAP2 SWAP1 POP JUMP JUMPDEST PUSH2 0x1100 DUP2 PUSH2 0x10E6 JUMP JUMPDEST DUP2 EQ PUSH2 0x110A JUMPI PUSH0 PUSH0 REVERT JUMPDEST POP JUMP JUMPDEST PUSH0 DUP2 CALLDATALOAD SWAP1 POP PUSH2 0x111B DUP2 PUSH2 0x10F7 JUMP JUMPDEST SWAP3 SWAP2 POP POP JUMP JUMPDEST PUSH0 DUP2 SWAP1 POP SWAP2 SWAP1 POP JUMP JUMPDEST PUSH2 0x1133 DUP2 PUSH2 0x1121 JUMP JUMPDEST DUP2 EQ PUSH2 0x113D JUMPI PUSH0 PUSH0 REVERT JUMPDEST POP JUMP JUMPDEST PUSH0 DUP2 CALLDATALOAD SWAP1 POP PUSH2 0x114E DUP2 PUSH2 0x112A JUMP JUMPDEST SWAP3 SWAP2 POP POP JUMP JUMPDEST PUSH0 PUSH0 PUSH0 PUSH1 0x60 DUP5 DUP7 SUB SLT ISZERO PUSH2 0x116B JUMPI PUSH2 0x116A PUSH2 0x10C3 JUMP JUMPDEST JUMPDEST PUSH0 PUSH2 0x1178 DUP7 DUP3 DUP8 ADD PUSH2 0x110D JUMP JUMPDEST SWAP4 POP POP PUSH1 0x20 PUSH2 0x1189 DUP7 DUP3 DUP8 ADD PUSH2 0x110D JUMP JUMPDEST SWAP3 POP POP PUSH1 0x40 PUSH2 0x119A DUP7 DUP3 DUP8 ADD PUSH2 0x1140 JUMP JUMPDEST SWAP2 POP POP SWAP3 POP SWAP3 POP SWAP3 JUMP JUMPDEST PUSH0 PUSH0 PUSH1 0x40 DUP4 DUP6 SUB SLT ISZERO PUSH2 0x11BA JUMPI PUSH2 0x11B9 PUSH2 0x10C3 JUMP JUMPDEST JUMPDEST PUSH0 PUSH2 0x11C7 DUP6 DUP3 DUP7 ADD PUSH2 0x110D JUMP JUMPDEST SWAP3 POP POP PUSH1 0x20 PUSH2 0x11D8 DUP6 DUP3 DUP7 ADD PUSH2 0x1140 JUMP JUMPDEST SWAP2 POP POP SWAP3 POP SWAP3 SWAP1 POP JUMP JUMPDEST PUSH2 0x11EB DUP2 PUSH2 0x10E6 JUMP JUMPDEST DUP3 MSTORE POP POP JUMP JUMPDEST PUSH2 0x11FA DUP2 PUSH2 0x1121 JUMP JUMPDEST DUP3 MSTORE POP POP JUMP JUMPDEST PUSH32 0x4E487B7100000000000000000000000000000000000000000000000000000000 PUSH0 MSTORE PUSH1 0x21 PUSH1 0x4 MSTORE PUSH1 0x24 PUSH0 REVERT JUMPDEST PUSH1 0x3 DUP2 LT PUSH2 0x123E JUMPI PUSH2 0x123D PUSH2 0x1200 JUMP JUMPDEST JUMPDEST POP JUMP JUMPDEST PUSH0 DUP2 SWAP1 POP PUSH2 0x124E DUP3 PUSH2 0x122D JUMP JUMPDEST SWAP2 SWAP1 POP JUMP JUMPDEST PUSH0 PUSH2 0x125D DUP3 PUSH2 0x1241 JUMP JUMPDEST SWAP1 POP SWAP2 SWAP1 POP JUMP JUMPDEST PUSH2 0x126D DUP2 PUSH2 0x1253 JUMP JUMPDEST DUP3 MSTORE POP POP JUMP JUMPDEST PUSH0 DUP2 ISZERO ISZERO SWAP1 POP SWAP2 SWAP1 POP JUMP JUMPDEST PUSH2 0x1287 DUP2 PUSH2 0x1273 JUMP JUMPDEST DUP3 MSTORE POP POP JUMP JUMPDEST PUSH0 PUSH2 0x100 DUP3 ADD SWAP1 POP PUSH2 0x12A1 PUSH0 DUP4 ADD DUP12 PUSH2 0x11E2 JUMP JUMPDEST PUSH2 0x12AE PUSH1 0x20 DUP4 ADD DUP11 PUSH2 0x11E2 JUMP JUMPDEST PUSH2 0x12BB PUSH1 0x40 DUP4 ADD DUP10 PUSH2 0x11F1 JUMP JUMPDEST PUSH2 0x12C8 PUSH1 0x60 DUP4 ADD DUP9 PUSH2 0x11F1 JUMP JUMPDEST PUSH2 0x12D5 PUSH1 0x80 DUP4 ADD DUP8 PUSH2 0x11F1 JUMP JUMPDEST PUSH2 0x12E2 PUSH1 0xA0 DUP4 ADD DUP7 PUSH2 0x11F1 JUMP JUMPDEST PUSH2 0x12EF PUSH1 0xC0 DUP4 ADD DUP6 PUSH2 0x1264 JUMP JUMPDEST PUSH2 0x12FC PUSH1 0xE0 DUP4 ADD DUP5 PUSH2 0x127E JUMP JUMPDEST SWAP10 SWAP9 POP POP POP POP POP POP POP POP POP JUMP JUMPDEST PUSH0 DUP2 MLOAD SWAP1 POP SWAP2 SWAP1 POP JUMP JUMPDEST PUSH0 DUP3 DUP3 MSTORE PUSH1 0x20 DUP3 ADD SWAP1 POP SWAP3 SWAP2 POP POP JUMP JUMPDEST PUSH0 DUP2 SWAP1 POP PUSH1 0x20 DUP3 ADD SWAP1 POP SWAP2 SWAP1 POP JUMP JUMPDEST PUSH2 0x133B DUP2 PUSH2 0x10E6 JUMP JUMPDEST DUP3 MSTORE POP POP JUMP JUMPDEST PUSH2 0x134A DUP2 PUSH2 0x1121 JUMP JUMPDEST DUP3 MSTORE POP POP JUMP JUMPDEST PUSH2 0x1359 DUP2 PUSH2 0x1253 JUMP JUMPDEST DUP3 MSTORE POP POP JUMP JUMPDEST PUSH2 0x1368 DUP2 PUSH2 0x1273 JUMP JUMPDEST DUP3 MSTORE POP POP JUMP JUMPDEST PUSH2 0x100 DUP3 ADD PUSH0 DUP3 ADD MLOAD PUSH2 0x1383 PUSH0 DUP6 ADD DUP3 PUSH2 0x1332 JUMP JUMPDEST POP PUSH1 0x20 DUP3 ADD MLOAD PUSH2 0x1396 PUSH1 0x20 DUP6 ADD DUP3 PUSH2 0x1332 JUMP JUMPDEST POP PUSH1 0x40 DUP3 ADD MLOAD PUSH2 0x13A9 PUSH1 0x40 DUP6 ADD DUP3 PUSH2 0x1341 JUMP JUMPDEST POP PUSH1 0x60 DUP3 ADD MLOAD PUSH2 0x13BC PUSH1 0x60 DUP6 ADD DUP3 PUSH2 0x1341 JUMP JUMPDEST POP PUSH1 0x80 DUP3 ADD MLOAD PUSH2 0x13CF PUSH1 0x80 DUP6 ADD DUP3 PUSH2 0x1341 JUMP JUMPDEST POP PUSH1 0xA0 DUP3 ADD MLOAD PUSH2 0x13E2 PUSH1 0xA0 DUP6 ADD DUP3 PUSH2 0x1341 JUMP JUMPDEST POP PUSH1 0xC0 DUP3 ADD MLOAD PUSH2 0x13F5 PUSH1 0xC0 DUP6 ADD DUP3 PUSH2 0x1350 JUMP JUMPDEST POP PUSH1 0xE0 DUP3 ADD MLOAD PUSH2 0x1408 PUSH1 0xE0 DUP6 ADD DUP3 PUSH2 0x135F JUMP JUMPDEST POP POP POP POP JUMP JUMPDEST PUSH0 PUSH2 0x1419 DUP4 DUP4 PUSH2 0x136E JUMP JUMPDEST PUSH2 0x100 DUP4 ADD SWAP1 POP SWAP3 SWAP2 POP POP JUMP JUMPDEST PUSH0 PUSH1 0x20 DUP3 ADD SWAP1 POP SWAP2 SWAP1 POP JUMP JUMPDEST PUSH0 PUSH2 0x143C DUP3 PUSH2 0x1309 JUMP JUMPDEST PUSH2 0x1446 DUP2 DUP6 PUSH2 0x1313 JUMP JUMPDEST SWAP4 POP PUSH2 0x1451 DUP4 PUSH2 0x1323 JUMP JUMPDEST DUP1 PUSH0 JUMPDEST DUP4 DUP2 LT ISZERO PUSH2 0x1481 JUMPI DUP2 MLOAD PUSH2 0x1468 DUP9 DUP3 PUSH2 0x140E JUMP JUMPDEST SWAP8 POP PUSH2 0x1473 DUP4 PUSH2 0x1426 JUMP JUMPDEST SWAP3 POP POP PUSH1 0x1 DUP2 ADD SWAP1 POP PUSH2 0x1454 JUMP JUMPDEST POP DUP6 SWAP4 POP POP POP POP SWAP3 SWAP2 POP POP JUMP JUMPDEST PUSH0 PUSH1 0x20 DUP3 ADD SWAP1 POP DUP2 DUP2 SUB PUSH0 DUP4 ADD MSTORE PUSH2 0x14A6 DUP2 DUP5 PUSH2 0x1432 JUMP JUMPDEST SWAP1 POP SWAP3 SWAP2 POP POP JUMP JUMPDEST PUSH0 PUSH1 0x20 DUP3 ADD SWAP1 POP PUSH2 0x14C1 PUSH0 DUP4 ADD DUP5 PUSH2 0x11F1 JUMP JUMPDEST SWAP3 SWAP2 POP POP JUMP JUMPDEST PUSH0 PUSH1 0x20 DUP3 DUP5 SUB SLT ISZERO PUSH2 0x14DC JUMPI PUSH2 0x14DB PUSH2 0x10C3 JUMP JUMPDEST JUMPDEST PUSH0 PUSH2 0x14E9 DUP5 DUP3 DUP6 ADD PUSH2 0x110D JUMP JUMPDEST SWAP2 POP POP SWAP3 SWAP2 POP POP JUMP JUMPDEST PUSH0 PUSH0 PUSH0 PUSH0 PUSH1 0x80 DUP6 DUP8 SUB SLT ISZERO PUSH2 0x150A JUMPI PUSH2 0x1509 PUSH2 0x10C3 JUMP JUMPDEST JUMPDEST PUSH0 PUSH2 0x1517 DUP8 DUP3 DUP9 ADD PUSH2 0x110D JUMP JUMPDEST SWAP5 POP POP PUSH1 0x20 PUSH2 0x1528 DUP8 DUP3 DUP9 ADD PUSH2 0x1140 JUMP JUMPDEST SWAP4 POP POP PUSH1 0x40 PUSH2 0x1539 DUP8 DUP3 DUP9 ADD PUSH2 0x1140 JUMP JUMPDEST SWAP3 POP POP PUSH1 0x60 PUSH2 0x154A DUP8 DUP3 DUP9 ADD PUSH2 0x1140 JUMP JUMPDEST SWAP2 POP POP SWAP3 SWAP6 SWAP2 SWAP5 POP SWAP3 POP JUMP JUMPDEST PUSH32 0x4E487B7100000000000000000000000000000000000000000000000000000000 PUSH0 MSTORE PUSH1 0x32 PUSH1 0x4 MSTORE PUSH1 0x24 PUSH0 REVERT JUMPDEST PUSH0 DUP3 DUP3 MSTORE PUSH1 0x20 DUP3 ADD SWAP1 POP SWAP3 SWAP2 POP POP JUMP JUMPDEST PUSH32 0x496E76616C696420726563656976657200000000000000000000000000000000 PUSH0 DUP3 ADD MSTORE POP JUMP JUMPDEST PUSH0 PUSH2 0x15C7 PUSH1 0x10 DUP4 PUSH2 0x1583 JUMP JUMPDEST SWAP2 POP PUSH2 0x15D2 DUP3 PUSH2 0x1593 JUMP JUMPDEST PUSH1 0x20 DUP3 ADD SWAP1 POP SWAP2 SWAP1 POP JUMP JUMPDEST PUSH0 PUSH1 0x20 DUP3 ADD SWAP1 POP DUP2 DUP2 SUB PUSH0 DUP4 ADD MSTORE PUSH2 0x15F4 DUP2 PUSH2 0x15BB JUMP JUMPDEST SWAP1 POP SWAP2 SWAP1 POP JUMP JUMPDEST PUSH32 0x536869706D656E74206E6F7420696E207472616E736974000000000000000000 PUSH0 DUP3 ADD MSTORE POP JUMP JUMPDEST PUSH0 PUSH2 0x162F PUSH1 0x17 DUP4 PUSH2 0x1583 JUMP JUMPDEST SWAP2 POP PUSH2 0x163A DUP3 PUSH2 0x15FB JUMP JUMPDEST PUSH1 0x20 DUP3 ADD SWAP1 POP SWAP2 SWAP1 POP JUMP JUMPDEST PUSH0 PUSH1 0x20 DUP3 ADD SWAP1 POP DUP2 DUP2 SUB PUSH0 DUP4 ADD MSTORE PUSH2 0x165C DUP2 PUSH2 0x1623 JUMP JUMPDEST SWAP1 POP SWAP2 SWAP1 POP JUMP JUMPDEST PUSH32 0x536869706D656E7420616C726561647920706169640000000000000000000000 PUSH0 DUP3 ADD MSTORE POP JUMP JUMPDEST PUSH0 PUSH2 0x1697 PUSH1 0x15 DUP4 PUSH2 0x1583 JUMP JUMPDEST SWAP2 POP PUSH2 0x16A2 DUP3 PUSH2 0x1663 JUMP JUMPDEST PUSH1 0x20 DUP3 ADD SWAP1 POP SWAP2 SWAP1 POP JUMP JUMPDEST PUSH0 PUSH1 0x20 DUP3 ADD SWAP1 POP DUP2 DUP2 SUB PUSH0 DUP4 ADD MSTORE PUSH2 0x16C4 DUP2 PUSH2 0x168B JUMP JUMPDEST SWAP1 POP SWAP2 SWAP1 POP JUMP JUMPDEST PUSH32 0x536869706D656E7420616C726561647920696E207472616E7369740000000000 PUSH0 DUP3 ADD MSTORE POP JUMP JUMPDEST PUSH0 PUSH2 0x16FF PUSH1 0x1B DUP4 PUSH2 0x1583 JUMP JUMPDEST SWAP2 POP PUSH2 0x170A DUP3 PUSH2 0x16CB JUMP JUMPDEST PUSH1 0x20 DUP3 ADD SWAP1 POP SWAP2 SWAP1 POP JUMP JUMPDEST PUSH0 PUSH1 0x20 DUP3 ADD SWAP1 POP DUP2 DUP2 SUB PUSH0 DUP4 ADD MSTORE PUSH2 0x172C DUP2 PUSH2 0x16F3 JUMP JUMPDEST SWAP1 POP SWAP2 SWAP1 POP JUMP JUMPDEST PUSH32 0x5061796D656E7420616D6F756E74206D757374206D6174636820746865207072 PUSH0 DUP3 ADD MSTORE PUSH32 0x6963650000000000000000000000000000000000000000000000000000000000 PUSH1 0x20 DUP3 ADD MSTORE POP JUMP JUMPDEST PUSH0 PUSH2 0x178D PUSH1 0x23 DUP4 PUSH2 0x1583 JUMP JUMPDEST SWAP2 POP PUSH2 0x1798 DUP3 PUSH2 0x1733 JUMP JUMPDEST PUSH1 0x40 DUP3 ADD SWAP1 POP SWAP2 SWAP1 POP JUMP JUMPDEST PUSH0 PUSH1 0x20 DUP3 ADD SWAP1 POP DUP2 DUP2 SUB PUSH0 DUP4 ADD MSTORE PUSH2 0x17BA DUP2 PUSH2 0x1781 JUMP JUMPDEST SWAP1 POP SWAP2 SWAP1 POP JUMP JUMPDEST PUSH32 0x4E487B7100000000000000000000000000000000000000000000000000000000 PUSH0 MSTORE PUSH1 0x11 PUSH1 0x4 MSTORE PUSH1 0x24 PUSH0 REVERT JUMPDEST PUSH0 PUSH2 0x17F8 DUP3 PUSH2 0x1121 JUMP JUMPDEST SWAP2 POP PUSH32 0xFFFFFFFFFFFFFFFFFFFFFFFFFFFFFFFFFFFFFFFFFFFFFFFFFFFFFFFFFFFFFFFF DUP3 SUB PUSH2 0x182A JUMPI PUSH2 0x1829 PUSH2 0x17C1 JUMP JUMPDEST JUMPDEST PUSH1 0x1 DUP3 ADD SWAP1 POP SWAP2 SWAP1 POP JUMP JUMPDEST PUSH0 PUSH1 0x60 DUP3 ADD SWAP1 POP PUSH2 0x1848 PUSH0 DUP4 ADD DUP7 PUSH2 0x11F1 JUMP JUMPDEST PUSH2 0x1855 PUSH1 0x20 DUP4 ADD DUP6 PUSH2 0x11F1 JUMP JUMPDEST PUSH2 0x1862 PUSH1 0x40 DUP4 ADD DUP5 PUSH2 0x11F1 JUMP JUMPDEST SWAP5 SWAP4 POP POP POP POP JUMP INVALID LOG2 PUSH5 0x6970667358 0x22 SLT KECCAK256 0xC4 PUSH11 0xAE865D00D0E20EAF1E62D2 0xF9 SHL DUP10 0xB2 SGT RETURN 0xDC PUSH8 0x7F3FCF49A17EACDE MSTORE ADDMOD 0xDA PUSH5 0x736F6C6343 STOP ADDMOD SHR STOP CALLER "},"methodIdentifiers":{"completeShipment(address,address,uint256)":"179a878c","createShipment(address,uint256,uint256,uint256)":"cbc4b181","getAllTranstions()":"7d30b244","getShipment(address,uint256)":"8365da54","getShipmentCount(address)":"b7dfd93d","shipmentCount()":"aace20b7","shipments(address,uint256)":"5667e02f","startShipment(address,address,uint256)":"7ff5265d"}}}}}